:020000040800F2
:10000000000002209DD0000859B9000865B9000819
:100010006BB9000871B9000877B90008000000004A
:100020000000000000000000000000007DB9000892
:1000300089B900080000000095B90008A1B90008BE
:10004000EDD00008EDD00008EDD00008EDD000089C
:10005000EDD00008EDD00008ADB90008EDD00008E3
:10006000EDD00008BBB90008EDD00008EDD00008C5
:10007000C9B90008EDD00008EDD00008EDD00008A7
:10008000EDD00008EDD00008EDD00008EDD000085C
:10009000DDB90008EDD00008EDD00008EDD0000873
:1000A000EDD00008F1B90008EDD00008EDD000084F
:1000B000EDD00008EDD00008EDD00008EDD000082C
:1000C000EDD00008EDD00008EDD00008EDD000081C
:1000D000EDD000080DBA0008EDD0000865E5000875
:1000E000EDD00008EDD00008EDD00008EDD00008FC
:1000F000EDD00008EDD00008EDD00008EDD00008EC
:10010000EDD00008EDD00008EDD00008EDD00008DB
:10011000EDD00008EDD00008EDD00008EDD00008CB
:10012000EDD00008EDD0000821BA0008EDD000089D
:10013000EDD00008EDD00008EDD00008EDD00008AB
:1001400035BA0008EDD00008EDD0000849BA000823
:10015000EDD00008EDD000085DBA000871BA0008C3
:10016000EDD00008EDD00008EDD00008EDD000087B
:10017000EDD00008EDD00008EDD000080000000030
:08018000EDD00008EDD00008ED
:1001880010B5054C237833B9044B13B10448AFF3C9
:1001980000800123237010BDB00200200000000081
:1001A800E0F7000808B5034B1BB103490348AFF358
:1001B800008008BD00000000B4020020E0F700083D
:1001C80081F0004102E000BF83F0004330B54FEA00
:1001D80041044FEA430594EA050F08BF90EA020F6D
:1001E8001FBF54EA000C55EA020C7FEA645C7FEA00
:1001F800655C00F0E2804FEA5454D4EB5555B8BF23
:100208006D420CDD2C4480EA020281EA030382EA93
:10021800000083EA010180EA020281EA0303362D25
:1002280088BF30BD11F0004F4FEA01314FF4801CF8
:100238004CEA113102D0404261EB410113F0004F0A
:100248004FEA03334CEA133302D0524263EB4303C1
:1002580094EA050F00F0A780A4F10104D5F1200E5F
:100268000DDB02FA0EFC22FA05F2801841F10001BA
:1002780003FA0EF2801843FA05F359410EE0A5F18E
:1002880020050EF1200E012A03FA0EFC28BF4CF0BF
:10029800020C43FA05F3C01851EBE37101F0004575
:1002A80007D54FF0000EDCF1000C7EEB00006EEB82
:1002B8000101B1F5801F1BD3B1F5001F0CD349080C
:1002C8005FEA30004FEA3C0C04F101044FEA445263
:1002D80012F5800F80F09A80BCF1004F08BF5FEAEA
:1002E800500C50F1000041EB045141EA050130BDCA
:1002F8005FEA4C0C404141EB0101013C28BFB1F5DC
:10030800801FE9D291F0000F04BF01460020B1FA26
:1003180081F308BF2033A3F10B03B3F120020CDAF9
:100328000C3208DD02F1140CC2F10C0201FA0CF0D7
:1003380021FA02F10CE002F11402D8BFC2F1200C3C
:1003480001FA02F120FA0CFCDCBF41EA0C019040F2
:10035800E41AA2BF01EB0451294330BD6FEA04043B
:100368001F3C1CDA0C340EDC04F11404C4F1200226
:1003780020FA04F001FA02F340EA030021FA04F338
:1003880045EA030130BDC4F10C04C4F1200220FA8F
:1003980002F001FA04F340EA0300294630BD21FACD
:1003A80004F0294630BD94F0000F83F4801306BF93
:1003B80081F480110134013D4EE77FEA645C18BF87
:1003C8007FEA655C29D094EA050F08BF90EA020F1E
:1003D80005D054EA000C04BF1946104630BD91EA16
:1003E800030F1EBF0021002030BD5FEA545C05D119
:1003F8004000494128BF41F0004130BD14F5800458
:100408003CBF01F5801130BD01F0004545F0FE41CB
:1004180041F470014FF0000030BD7FEA645C1ABF00
:10042800194610467FEA655C1CBF0B46024650EA37
:10043800013406BF52EA033591EA030F41F4002163
:1004480030BD00BF90F0000F04BF0021704730B5E9
:100458004FF4806404F132044FF000054FF00001BE
:1004680050E700BF90F0000F04BF0021704730B57F
:100478004FF4806404F1320410F0004548BF404254
:100488004FF000013EE700BF42004FEAE2014FEAA9
:1004980031014FEA02701FBF12F07F4393F07F4F84
:1004A80081F06051704732F07F4208BF704793F087
:1004B8007F4F04BF41F40021704730B54FF460749A
:1004C80001F0004521F000411CE700BF50EA01029D
:1004D80008BF704730B54FF000050AE050EA010246
:1004E80008BF704730B511F0004502D5404261EBB6
:1004F80041014FF4806404F132045FEA915C3FF4F7
:10050800D8AE4FF003025FEADC0C18BF03325FEA93
:10051800DC0C18BF033202EBDC02C2F1200300FA44
:1005280003FC20FA02F001FA03FE40EA0E0021FA69
:1005380002F11444BDE600BF70B54FF0FF0C4CF457
:10054800E06C1CEA11541DBF1CEA135594EA0C0F09
:1005580095EA0C0F00F0DEF82C4481EA030621EA44
:100568004C5123EA4C5350EA013518BF52EA03357F
:1005780041F4801143F4801338D0A0FB02CE4FF031
:100588000005E1FB02E506F00042E0FB03E54FF061
:100598000006E1FB03569CF0000F18BF4EF0010E59
:1005A800A4F1FF04B6F5007F64F5407404D25FEA55
:1005B8004E0E6D4146EB060642EAC62141EA555108
:1005C8004FEAC52040EA5E504FEACE2EB4F1FD0C4A
:1005D80088BFBCF5E06F1ED8BEF1004F08BF5FEAC8
:1005E800500E50F1000041EB045170BD06F000467A
:1005F80046EA010140EA020081EA0301B4EB5C0427
:10060800C2BFD4EB0C0541EA045170BD41F480111E
:100618004FF0000E013C00F3AB8014F1360FDEBF43
:10062800002001F0004170BDC4F10004203C35DA1F
:100638000C341BDC04F11404C4F1200500FA05F3A2
:1006480020FA04F001FA05F240EA020001F0004243
:1006580021F0004110EBD37021FA04F642EB0601B9
:100668005EEA430E08BF20EAD37070BDC4F10C04E3
:10067800C4F1200500FA04F320FA05F001FA04F2A7
:1006880040EA020001F0004110EBD37041F1000193
:100698005EEA430E08BF20EAD37070BDC4F120059E
:1006A80000FA05F24EEA020E20FA04F301FA05F206
:1006B80043EA020321FA04F001F0004121FA04F2AE
:1006C80020EA020000EBD3705EEA430E08BF20EA7E
:1006D800D37070BD94F0000F0FD101F000464000B8
:1006E80041EB010111F4801F08BF013CF7D041EA3A
:1006F800060195F0000F18BF704703F0004652003E
:1007080043EB030313F4801F08BF013DF7D043EA0E
:100718000603704794EA0C0F0CEA135518BF95EAC4
:100728000C0F0CD050EA410618BF52EA4306D1D14B
:1007380081EA030101F000414FF0000070BD50EA6A
:10074800410606BF1046194652EA430619D094EAF4
:100758000C0F02D150EA013613D195EA0C0F05D1DE
:1007680052EA03361CBF104619460AD181EA030132
:1007780001F0004141F0FE4141F470014FF00000EA
:1007880070BD41F0FE4141F4780170BD70B54FF085
:10079800FF0C4CF4E06C1CEA11541DBF1CEA135505
:1007A80094EA0C0F95EA0C0F00F0A7F8A4EB0504E7
:1007B80081EA030E52EA03354FEA013100F08880DE
:1007C8004FEA03334FF0805545EA131343EA1263A7
:1007D8004FEA022245EA111545EA10654FEA00265C
:1007E8000EF000419D4208BF964244F1FD0404F515
:1007F800407402D25B084FEA3202B61A65EB030571
:100808005B084FEA32024FF480104FF4002CB6EB2D
:10081800020E75EB030E22BFB61A754640EA0C00AD
:100828005B084FEA3202B6EB020E75EB030E22BFED
:10083800B61A754640EA5C005B084FEA3202B6EB2E
:10084800020E75EB030E22BFB61A754640EA9C00ED
:100858005B084FEA3202B6EB020E75EB030E22BFBD
:10086800B61A754640EADC0055EA060E18D04FEA7B
:10087800051545EA16754FEA06164FEAC30343EA1B
:1008880052734FEAC2025FEA1C1CC0D111F4801FE8
:100898000BD141EA00014FF000004FF0004CB6E7E1
:1008A80011F4801F04BF01430020B4F1FD0C88BF80
:1008B800BCF5E06F3FF6AFAEB5EB030C04BFB6EB8B
:1008C800020C5FEA500C50F1000041EB045170BD7E
:1008D8000EF0004E4EEA113114EB5C04C2BFD4EBAB
:1008E8000C0541EA045170BD41F480114FF0000E2F
:1008F800013C90E645EA060E8DE60CEA135594EAAB
:100908000C0F08BF95EA0C0F3FF43BAF94EA0C0FAD
:100918000AD150EA01347FF434AF95EA0C0F7FF422
:1009280025AF104619462CE795EA0C0F06D152EA76
:1009380003353FF4FDAE1046194622E750EA41065A
:1009480018BF52EA43067FF4C5AE50EA41047FF46B
:100958000DAF52EA43057FF4EBAE12E74FF0FF3CD0
:1009680006E000BF4FF0010C02E000BF4FF0010CA1
:100978004DF804CD4FEA410C7FEA6C5C4FEA430C1A
:1009880018BF7FEA6C5C1BD001B050EA410C0CBF69
:1009980052EA430C91EA030F02BF90EA020F0020CB
:1009A800704710F1000F91EA030F58BF994208BF32
:1009B80090422CBFD8176FEAE37040F001007047EF
:1009C8004FEA410C7FEA6C5C02D150EA013C07D146
:1009D8004FEA430C7FEA6C5CD6D152EA033CD3D091
:1009E8005DF8040B704700BF8446104662468C468B
:1009F8001946634600E000BF01B5FFF7B7FF0028BE
:100A080048BF10F1000F01BD4DF808EDFFF7F4FFE6
:100A18000CBF012000205DF808FB00BF4DF808ED71
:100A2800FFF7EAFF34BF012000205DF808FB00BF94
:100A38004DF808EDFFF7E0FF94BF012000205DF8B6
:100A480008FB00BF4DF808EDFFF7CEFF94BF01206B
:100A580000205DF808FB00BF4DF808EDFFF7C4FF64
:100A680034BF012000205DF808FB00BF4FEA410CAD
:100A78007FEA6C5C02D150EA013C0AD14FEA430C90
:100A88007FEA6C5C02D152EA033C02D14FF00000CD
:100A980070474FF0010070474A0011D212F500125A
:100AA80011D20DD56FF47873B3EB62520ED44FEABE
:100AB800C12343F0004343EA505323FA02F070473E
:100AC8004FF00000704750EA013002D14FF0FF307C
:100AD80070474FF0000070474FEA4102B2F1E0431F
:100AE80024BFB3F5001CDCF1FE5C0DD901F0004C0D
:100AF8004FEAC0024CEA5070B2F1004F40EB83005D
:100B080008BF20F00100704711F0804F21D113F188
:100B18003872BCBF01F00040704741F480114FEAC1
:100B28005252C2F11802C2F1200C10FA0CF320FA4A
:100B380002F018BF40F001004FEAC1234FEAD32367
:100B480003FA0CFC40EA0C0023FA02F34FEA4303D1
:100B5800CCE77FEA625307D150EA01331EBF4FF05A
:100B6800FE4040F44000704701F0004040F0FE4075
:100B780040F40000704700BF80F0004002E000BF72
:100B880081F0004142001FBF5FEA410392EA030F70
:100B98007FEA226C7FEA236C6AD04FEA1262D2EBBA
:100BA8001363C1BFD218414048404140B8BF5B42BF
:100BB800192B88BF704710F0004F40F4000020F058
:100BC8007F4018BF404211F0004F41F4000121F06E
:100BD8007F4118BF494292EA030F3FD0A2F10102B8
:100BE80041FA03FC10EB0C00C3F1200301FA03F1F6
:100BF80000F0004302D5494260EB4000B0F5000F19
:100C080013D3B0F1807F06D340084FEA310102F1D7
:100C18000102FE2A51D2B1F1004F40EBC25008BF89
:100C280020F0010040EA03007047490040EB000053
:100C3800013A28BFB0F5000FEDD2B0FA80FCACF154
:100C4800080CB2EB0C0200FA0CF0AABF00EBC25081
:100C580052421843BCBFD0401843704792F0000F6F
:100C680081F4000106BF80F400000132013BB5E7C2
:100C78004FEA41037FEA226C18BF7FEA236C21D038
:100C880092EA030F04D092F0000F08BF084670479D
:100C980090EA010F1CBF0020704712F07F4F04D16B
:100CA800400028BF40F00040704712F100723CBF7E
:100CB80000F50000704700F0004343F0FE4040F4A8
:100CC800000070477FEA226216BF08467FEA236366
:100CD8000146420206BF5FEA412390EA010F40F451
:100CE800800070474FF0000304E000BF10F000439D
:100CF80048BF40425FEA000C08BF704743F0964384
:100D080001464FF000001CE050EA010208BF70479E
:100D18004FF000030AE000BF50EA010208BF704725
:100D280011F0004302D5404261EB41015FEA010C3A
:100D380002BF84460146002043F0B64308BFA3F132
:100D48008053A3F50003BCFA8CF2083AA3EBC25314
:100D580010DB01FA02FC634400FA02FCC2F1200233
:100D6800BCF1004F20FA02F243EB020008BF20F06A
:100D78000100704702F1200201FA02FCC2F12002D0
:100D880050EA4C0021FA02F243EB020008BF20EAC5
:100D9800DC7070474FF0FF0C1CEAD0521EBF1CEAF3
:100DA800D15392EA0C0F93EA0C0F6FD01A4480EAE1
:100DB800010C400218BF5FEA41211ED04FF00063CA
:100DC80043EA501043EA5111A0FB01310CF00040F6
:100DD800B1F5000F3EBF490041EAD3715B0040EA1C
:100DE800010062F17F02FD2A1DD8B3F1004F40EBEC
:100DF800C25008BF20F00100704790F0000F0CF0BF
:100E0800004C08BF49024CEA502040EA51207F3A82
:100E1800C2BFD2F1FF0340EAC250704740F400005D
:100E28004FF00003013A5DDC12F1190FDCBF00F04E
:100E380000407047C2F10002410021FA02F1C2F1FC
:100E4800200200FA02FC5FEA310040F1000053EA98
:100E58004C0308BF20EADC70704792F0000F00F0E6
:100E6800004C02BF400010F4000F013AF9D040EAEC
:100E78000C0093F0000F01F0004C02BF490011F480
:100E8800000F013BF9D041EA0C018FE70CEAD1537E
:100E980092EA0C0F18BF93EA0C0F0AD030F0004CFE
:100EA80018BF31F0004CD8D180EA010000F00040B2
:100EB800704790F0000F17BF90F0004F084691F070
:100EC800000F91F0004F14D092EA0C0F01D14202AA
:100ED8000FD193EA0C0F03D14B0218BF084608D173
:100EE80080EA010000F0004040F0FE4040F40000BD
:100EF800704740F0FE4040F4400070474FF0FF0C50
:100F08001CEAD0521EBF1CEAD15392EA0C0F93EA96
:100F18000C0F69D0A2EB030280EA010C49024FEAE8
:100F2800402037D04FF0805343EA111143EA1013A1
:100F38000CF000408B4238BF5B0042F17D024FF459
:100F4800000C8B4224BF5B1A40EA0C00B3EB510F34
:100F580024BFA3EB510340EA5C00B3EB910F24BF1D
:100F6800A3EB910340EA9C00B3EBD10F24BFA3EBA2
:100F7800D10340EADC001B0118BF5FEA1C1CE0D16A
:100F8800FD2A3FF650AF8B4240EBC25008BF20F01D
:100F9800010070470CF0004C4CEA50207F32C2BF71
:100FA800D2F1FF0340EAC250704740F400004FF00E
:100FB8000003013A37E792F0000F00F0004C02BF3F
:100FC800400010F4000F013AF9D040EA0C0093F009
:100FD800000F01F0004C02BF490011F4000F013B63
:100FE800F9D041EA0C0195E70CEAD15392EA0C0FCB
:100FF80008D142027FF47DAF93EA0C0F7FF470AF03
:10100800084676E793EA0C0F04D14B023FF44CAF45
:1010180008466EE730F0004C18BF31F0004CCAD1DA
:1010280030F000427FF45CAF31F000437FF43CAF16
:101038005FE700BF4FF0FF3C06E000BF4FF0010C38
:1010480002E000BF4FF0010C4DF804CD4FEA40021A
:101058004FEA41037FEA226C18BF7FEA236C11D064
:1010680001B052EA530C18BF90EA010F58BFB2EB17
:10107800030088BFC81738BF6FEAE17018BF40F097
:10108800010070477FEA226C02D15FEA402C05D14B
:101098007FEA236CE4D15FEA412CE1D05DF8040BD0
:1010A800704700BF844608466146FFE70FB5FFF763
:1010B800C9FF002848BF10F1000F0FBD4DF808ED1B
:1010C800FFF7F4FF0CBF012000205DF808FB00BF0C
:1010D8004DF808EDFFF7EAFF34BF012000205DF866
:1010E80008FB00BF4DF808EDFFF7E0FF94BF0120B3
:1010F80000205DF808FB00BF4DF808EDFFF7D2FFB0
:1011080094BF012000205DF808FB00BF4DF808EDF2
:10111800FFF7C8FF34BF012000205DF808FB00BFBF
:101128004FEA4002B2F1FE4F0FD34FF09E03B3EBEC
:1011380012620DD94FEA002343F0004310F0004F2C
:1011480023FA02F018BF404270474FF00000704782
:1011580012F1610F01D1420205D110F0004008BF21
:101168006FF0004070474FF00000704742000ED209
:10117800B2F1FE4F0BD34FF09E03B3EB126209D4CA
:101188004FEA002343F0004323FA02F070474FF080
:101198000000704712F1610F01D1420202D14FF0F5
:1011A800FF3070474FF00000704700BF53B94AB98D
:1011B800002908BF00281CBF4FF0FF314FF0FF3057
:1011C80001F0DEB8ADF1080C6DE904CE00F006F8C8
:1011D800DDF804E0DDE9022304B070472DE9F047AB
:1011E800089E0D4604468846002B4DD18A429446F7
:1011F80068D9B2FA82F252B101FA02F3C2F12001BF
:1012080020FA01F10CFA02FC41EA030894404FEA83
:101218001C45210CB8FBF5FE1FFA8CF705FB1E8355
:1012280041EA03430EFB07F199420BD91CEB030378
:101238000EF1FF3080F01E81994240F21B81AEF121
:10124800020E63445B1AA4B2B3FBF5F005FB10333E
:1012580044EA034400FB07F7A7420AD91CEB04043D
:1012680000F1FF3380F00881A74240F20581644411
:101278000238E41B40EA0E4000211EB1D44000238E
:10128800C6E90043BDE8F0878B4208D9002E00F07C
:10129800EE800021C6E900050846BDE8F087B3FAEC
:1012A80083F100294AD1AB4202D3824200F2F9808D
:1012B800841A65EB030301209846002EE2D0C6E9A4
:1012C8000048DFE702B9FFDEB2FA82F2002A40F0F6
:1012D8009180A1EB0C054FEA1C471FFA8CFE0121F7
:1012E800B5FBF7F307FB1350250C45EA00450EFB49
:1012F80003F0A84208D91CEB050503F1FF3802D218
:10130800A84200F2CB8043462D1AA4B2B5FBF7F0F1
:1013180007FB105544EA05440EFB00FEA64508D914
:101328001CEB040400F1FF3502D2A64500F2BB8095
:101338002846A4EB0E0440EA03409EE7C1F12007CB
:101348008B4022FA07FC4CEA030C20FA07F405FA52
:1013580001F31C43FD404FEA1C4900FA01F3B5FBB9
:10136800F9F8200C1FFA8CFE09FB185540EA0545D0
:1013780008FB0EF0A84202FA01F20BD91CEB050596
:1013880008F1FF3A80F08880A84240F28580A8F1F1
:10139800020865442D1AA4B2B5FBF9F009FB1055F3
:1013A80044EA054500FB0EFEAE4508D91CEB0505D1
:1013B80000F1FF346CD2AE456AD90238654440EA80
:1013C8000840A0FB0294A5EB0E05A542C846A64618
:1013D80056D353D05EB1B3EB080265EB0E0505FAA0
:1013E80007F722FA01F3CD401F43C6E90075002133
:1013F800BDE8F087C2F1200320FA03F10CFA02FCE1
:1014080025FA03F395400D434FEA1C471FFA8CFE5B
:10141800B3FBF7F107FB11302B0C43EA004301FB48
:101428000EF0984204FA02F408D91CEB030301F108
:10143800FF382FD298422DD9023963441B1AADB216
:10144800B3FBF7F007FB103345EA034500FB0EF347
:10145800AB4208D91CEB050500F1FF3816D2AB42A8
:1014680014D902386544ED1A40EA014138E731469B
:10147800304607E78646E5E61846FAE64B45A9D220
:10148800B9EB020864EB0C0E0138A3E74046EAE723
:10149800204694E74146D1E7D0467BE7023B6544C6
:1014A80032E7084609E76444023842E703685A000D
:1014B8004CBF43F0004323F000431844704700BF7B
:1014C8002DE9F84329B34F1E044615463E464FF012
:1014D800000808EB060101EBD171491004EBC109C2
:1014E8004846FFF7E3FF0346C80008308F42204410
:1014F80009D0AB4209D8FFF7D9FF0138A8420AD270
:1015080001F10108E5E7AB4205D9884501D04E1E37
:10151800DFE74FF000094846BDE8F883012807D007
:10152800022807D0044B00280CBF1846002070473B
:101538000248704702487047FD1B0008011C00085C
:10154800051C000830B5234B83B004468D1E3BB301
:1015580001A92846AFF30080E8B101992A46FFF7B0
:10156800AFFF0146B8B1FFF7A1FF4B68A064012B9C
:101578002CD0002B01F1040024DBFFF797FF002398
:10158800C4E913030368002B11DBFFF78FFF206109
:10159800002003B030BD00230920236103B030BD13
:1015A8000D4B0E49C91AC91018460191D6E7C3F365
:1015B8000360FFF7B3FF0028206114BF0020092053
:1015C80003B030BD0123C4E91303DBE70023236123
:1015D8000520DEE70000000084FA000804FC00088B
:1015E8000368DA0710B5044606D49B0700F14800E3
:1015F80009D500F05BFC2368590709D51A070ED5F1
:10160800DB0613D510BD00F049FC23685907F5D453
:1016180004F1D00000F052FC23681A07F0D404F556
:10162800A87000F053FC2368DB06EBD404F5E870DF
:10163800BDE8104000F08EBC0920704703460068E2
:1016480000B11844704700BF704700BF70B504462A
:101658000E46316C2046FFF775FF054688B9326C97
:101668006261236932462146012098470828F0D054
:10167800072806D12846316CFFF7E6FF301D00F039
:1016880001FC0DF0E3FE00BF2DE9F0470D1DD0F879
:101698000C80D0F81890074614460FCDADF5727D32
:1016A8000DF10C0CACE80F000FCDACE80F000FCD1E
:1016B800ACE80F0095E80F0002AE4FF0000E8CE882
:1016C8000F00C6F800E020E0336C7B614FF4F07245
:1016D80031467AA80DF00AFF3B697AAA3946504686
:1016E8009847889B73642146CDE9006905463B46C7
:1016F8003A460120C0470446E0B94FF4F0727AA98F
:1017080030460DF0F3FE082D1AD1316C3846FFF73C
:1017180019FF09345FFA84FA05460028D4D0B36B60
:1017280073643A46CDE900693B464AF0100101204E
:10173800C04700B1092528460DF5727DBDE8F08740
:10174800072DF7D12046316CFFF77EFF03A800F084
:1017580099FB00BF406C7047F0B5CB6B0B6401F18F
:10176800040C0E460546BCE80F00F9B001AC0FC4E6
:10177800BCE80F000FC4BCE80F000FC49CE80F00C2
:101788004FF0FF3784E80F00009706E02B696A46A0
:10179800294698470828044608D110992846FFF793
:1017A800D1FE0028F2D0092079B0F0BD6846FFF7D5
:1017B80017FF062CF7D131462846FFF747FF00BF31
:1017C800C160D96B82611964002219465CE700BFC9
:1017D80070B5C66843690B64AEB903690A46044626
:1017E8000D46014602209847072805D008280FD142
:1017F80029462046FFF72AFF3046296CFFF724FFC9
:10180800281D00F03FFB0122FFF73EFF0DF01EFEF2
:101818000DF01CFEC2681AB1CA6B0A64002233E7D5
:101828009AE700BF704700BF836801460BB10120EB
:1018380018477047012912D009D873B90F2A0CD854
:1018480000EB820218465368009A13607047033908
:10185800012994BF012002207047022070470846E2
:10186800704700BF00B585B00A46002303A9009160
:101878001946FFF7DFFF039805B05DF804FB00BFCA
:10188800012912D009D873B90F2A0CD800EB8200AD
:10189800009A12684260184670470339012994BFBC
:1018A800012002207047022070470846704700BF99
:1018B80010B584B0002303AC039200940A4619467D
:1018C800FFF7DEFF04B010BD70B5D36B136402F1EF
:1018D800040C05460C46BCE80F00ADF50E7D0DF175
:1018E8005C0EAEE80F00BCE80F00AEE80F00BCE8E5
:1018F8000F00AEE80F009CE80F004FF0FF368EE8AF
:101908000F00169610E0FFF7D3FF214616A8A84748
:10191800034616AA6946082083B9049B98470528F8
:1019280006460CD0092809D026996846FFF70AFE12
:1019380003466A460C2116A8002BE4D0092616A8EF
:10194800FFF74EFE30460DF50E7D70BD2DE9F04FC8
:10195800CC6C89B01E4654F8043B06940D461746D5
:1019680000F00308002E79D01A0C1B0405938DF89B
:101978001D200223D2B204EB82048DF81C302B6D9B
:10198800B8F1020F08BFAC6B13F001030CD005A926
:10199800384600F079FB18B9082009B0BDE8F08F87
:1019A800092009B0BDE8F08FD4F800A0BAF1000F03
:1019B800EDD0019300F008030293022E4AD0B4F848
:1019C80000A0B4F802900434AB6C29F0010B0F218D
:1019D80038469B44FFF746FF834539D82AF0010370
:1019E8009B44834594BF002001204FEA490303F03C
:1019F80002030AF0010A43EA0A03012B49D0022B29
:101A080032D0002BCCD1B8F1000F02D0002840F022
:101A1800CD800434D4F800A0BAF1000FCDD105A9C7
:101A2800384600F031FB0028BAD1019B002BB3D017
:101A38000F213846FFF716FF0E2102463846FFF7FA
:101A480037FF38466A4A0F21FFF732FF0720A8E719
:101A58000020CAE7D4F804900834B5E71B020593C0
:101A68000323ADF81C308AE7236823F0004BB8F154
:101A7800000F45D128B1029A002A5CD0BBF1000FB3
:101A880074D0002B00DA04340BF1010B04EB8B0447
:101A9800C0E7B8F1000F19D1B0B163682268991C8A
:101AA8004FEAD2723FF47CAF05F15801013304913B
:101AB80000F09080201DFFF7C1FD04AB01462846C9
:101AC800AFF3008000285BD10834A3E70D21384626
:101AD800D5F82090FFF7C6FE8145F5D1AB6A9C4248
:101AE800F2D12046FFF7E2FC0F2102463846FFF705
:101AF800DFFE38462A460021FFF7DAFE072050E7C6
:101B08000D213846D5F82090FFF7ACFE814501D06D
:101B18002368B6E7AB6A9C42FAD104230022C5E9E0
:101B28000B23E318C5F828B06B632368002B59DB37
:101B380001230193A8E705F15803CDF80C8004F1BF
:101B4800040AB04691461E460EE050460496FFF73A
:101B580075FD0022014604AB284609F101090AF186
:101B6800040AAFF30080E0B9D945EED10D2138461B
:101B7800FFF778FE049BAC62C5E90803062010E76E
:101B880081460D213846FFF76DFEB9F1020F286234
:101B980025D12B46049A43F82C2F6B62AC620620A1
:101BA800FFE646462368DDF80C806AE72046FFF723
:101BB8007DFC04340246AC6328461446AFF300802B
:101BC80000283FF4EDAE384622460F21FFF770FE9D
:101BD8000720E6E60D213846FFF744FE2862049BFD
:101BE8006B62DBE70BF1010004EB80007AE700BFD2
:101BF800000000000023A9E60123A7E60223A5E6CA
:101C08002DE9F0430646C3B015461C46042900F2E8
:101C1800BF80DFE801F09E57BD2D0300002C40F087
:101C2800B780102A00F2B4800368D80600F1F98062
:101C380020AF384600F098F9B46B394600234FF0CE
:101C4800010C0CFA03F22A42204603F1010303D0E7
:101C580050F8042B0A600446042B01F10401F0D16A
:101C68003846B46300F076F9002043B0BDE8F0834D
:101C7800032C40F08D8094B204EB1243102B4FEAF2
:101C8800124500F2858003681F0700F1D28020AF5B
:101C9800384600F03DF9B26B07EBC50154B10B466D
:101CA800D01A01EBC401E4001D5843F8045B8B42D1
:101CB800FAD122443846B26300F008F9002043B054
:101CC800BDE8F083012C4FEA124895B25CD0052C90
:101CD8005ED108EB0509B9F1200F59D8B8F10F0FFB
:101CE80079D9A946002D40F08A80B36B6DB320AF37
:101CF8004FF0000907EBC807043F03EBC50553F88D
:101D0800041B47F8041FAB42F9D1B9F1000F0FD0FB
:101D18006F464146102938BF102107EBC1018439AD
:101D280003EBC90553F8040B41F8040FAB42F9D192
:101D3800012C00F08680B8F10F0FB56347D9B9F1CF
:101D4800000F02D0684600F0B9F8002043B0BDE8A3
:101D5800F083ECB9806B23461FFA82FC0124371DFF
:101D680004FA03F212EA0C0F014604D051F8042BCE
:101D780047F8232008460133102BF1D115F40055FC
:101D8800E3D1B063284604E008EB0503102B03D920
:101D9800022043B0BDE8F083B8F10F0FF8D83368DC
:101DA800DA0706D5304623F0030340F8483B00F035
:101DB80079F820AF384600F075F8B36B002D97D14D
:101DC8001D460435B563384600F068F8BDE720A81D
:101DD80000F06CF8B3E7B9F1100F40D9A9F1100978
:101DE8003368D90708D523F00103304643F00203CE
:101DF80040F8483B00F05EF8B9F1000F32D0336884
:101E08005A0720D4B8F10F0F25D96F463846C8F1C4
:101E1800100500F057F8002DB36B7FF77AAF20AFAD
:101E280068E723F01003336006F5E87000F09CF8CB
:101E3800FEE623F00803036000F5A87000F068F8D8
:101E480025E720AFBDE7304623F0040340F8D03B38
:101E580000F038F8D6E720A800F02CF8D5E74FF0C6
:101E68000009BDE7B8F10F0F3FF63FAF20AF384686
:101E780000F020F8B36B002D7FF43AAF384600F03D
:101E880015F862E700F1340191E838009C46A6464F
:101E98004CF8045D90E8FF0FE54600BD90EC210B7F
:101EA800704700BF80EC210B704700BF90EC200BFF
:101EB800704700BF80EC200B704700BFD0EC200BB0
:101EC800704700BFC0EC200B704700BFF0EC020168
:101ED800F0EC0211F0EC0221F0EC0231F0EC0241DE
:101EE800F0EC0251F0EC0261F0EC0271F0EC0281CE
:101EF800F0EC0291F0EC02A1F0EC02B1F0EC02C1BE
:101F0800F0EC02D1F0EC02E1F0EC02F1704700BF16
:101F1800E0EC0201E0EC0211E0EC0221E0EC02311D
:101F2800E0EC0241E0EC0251E0EC0261E0EC02710D
:101F3800E0EC0281E0EC0291E0EC02A1E0EC02B1FD
:101F4800E0EC02C1E0EC02D1E0EC02E1E0EC02F1ED
:101F5800704700BFB0FC0181B0FC0191B0FC01A149
:101F6800B0FC01B1704700BFA0FC0181A0FC019149
:101F7800A0FC01A1A0FC01B1704700BFEC4600B570
:101F88002DE900502DE9FF1F4FF000032DE90C004B
:101F980001A9FFF7E1FBDDF840E012B0704700BF90
:101FA800EC4600B52DE900502DE9FF1F4FF0000366
:101FB8002DE90C0001A9FFF70BFCDDF840E012B099
:101FC800704700BFEC4600B52DE900502DE9FF1F12
:101FD8004FF000032DE90C0001A9FFF71BFCDDF809
:101FE80040E012B0704700BFEC4600B52DE9005044
:101FF8002DE9FF1F4FF000032DE90C0001ABFFF79F
:10200800DFFBDDF840E012B0704700BFEC4600B5DA
:102018002DE900502DE9FF1F4FF000032DE90C00BA
:1020280001AAFFF751FCDDF840E012B0704700BF8D
:10203800027A03467AB9427AA2B14168013A10B4E9
:102048004272086803220C1D1A7202025C60000EBC
:1020580010BC1A6070470068013A1A7202021A60CE
:10206800000E7047B020704700B585B0002303AA62
:10207800009219460C22FFF7DDFB039805B05DF8C6
:1020880004FB00BFF0E700BF2DE9F043054685B02B
:102098000E464FF000083046FFF7CAFFB028044646
:1020A80000F0BA80070620D500F0F003802B4DD051
:1020B800902B36D0A02B60D0B02B74D0C02B00F062
:1020C8008B8000F0F803D02B0BD100F0070201320F
:1020D800052342F4002201212846FFF791FD00283C
:1020E800D9D0092005B0BDE8F0838300DBB21F1DFD
:1020F8000DF10C0900231946CDF800900D22284651
:10210800FFF798FB039BCDF8009060064CBFDF1BE0
:10211800FF1800230D22194628460397FFF7B0FB46
:10212800B9E700F00D030D2BDBD003AF002300F05F
:102138000F02194600972846FFF77CFB00230097FB
:102148000D2219462846FFF79BFBA4E73046FFF708
:102158006FFF24022043B0F5004FC2D004010023D2
:10216800A2B219462846FFF74BFD0028B9D114F44E
:10217800004F18BF4FF001088DE7C24302F0070374
:102188004FF47F621A41010702F47F624FF00003A7
:1021980048BF42F4804219462846FFF731FD00281F
:1021A8003FF479AF9DE7B1283BD0B22800F0938087
:1021B800B32841D000F0FC03B42B92D000F0070202
:1021C8000132012342F4002219462846FFF718FD80
:1021D80000283FF460AF84E7C6284AD0C72854D007
:1021E80000F0F803C02B63D0C82868D0C9287FF452
:1021F80078AF3046FFF71CFF020300F00F0002F42F
:10220800702201300243012105232846FFF7F8FC1C
:1022180000283FF440AF64E7B8F1000F18D0002061
:1022280060E73046FFF704FF024600283FF459AF45
:1022380010F0F003C8D054E73046FFF7F9FE020368
:1022480000F00F03013302F470221A430123BBE7A5
:1022580003AC43460E22414600942846FFF7EAFAAB
:10226800009443460F2241462846FFF709FB4046A3
:1022780038E73046FFF7DCFE020300F00F030133B6
:1022880002F470221A4303239EE73046FFF7D0FE7C
:10229800024600283FF425AF10F0F0037FF421AF89
:1022A80004212846FFF7ACFC00283FF4F4AE18E7F9
:1022B80000F00F020132032342F4202284E7304663
:1022C800FFF7B6FE00F0F00200F00F031032013302
:1022D80043EA023297E700230DF10C090D22194653
:1022E800CDF800902846FFF7A5FA3046FFF7A0FE84
:1022F80002064FF002040CD5039B00F07F00A040BB
:10230800184403903046FFF793FE030604F10704D0
:10231800F2D4039BCDF8009000F07F02A24003F5B1
:1023280001731A440023039219460D222846FFF729
:10233800A7FAB0E610B5C26C536884B04FF0030C2E
:1023480008321C0208461B0E01A9019402928DF85E
:102358000CC08DF80D30FFF797FE04B010BD00BF1C
:1023680008B5FFF78FFE806C08BD00BF08B5FFF702
:1023780089FEC06CC379023300EB830008BD00BF3F
:10238800704700BF10F8012B11F8013B012A28BF44
:102398009A42F7D0D01A704780B500AF0E4B1B6831
:1023A8000D4A43F4007313600B4B1B680A4A43F44D
:1023B80080631360084B1B68074A43F480731360FB
:1023C800032001F083FB002000F008F809F09AFAD6
:1023D8000023184680BD00BF003C024080B582B093
:1023E80000AF7860124B1A68124B1B7819464FF4ED
:1023F8007A73B3FBF1F3B2FBF3F3184601F09BFBDE
:102408000346002B01D001230EE07B680F2B0AD86E
:10241800002279684FF0FF3001F063FB064A7B68C1
:102428001360002300E0012318460837BD4680BD2D
:102438001C010020080000200400002080B400AF28
:10244800054B1B781A46054B1B681344034A136057
:1024580000BFBD4680BC704708000020CC020020A9
:1024680080B400AF024B1B681846BD4680BC70475D
:10247800CC02002080B584B000AF7860FFF7F0FF91
:10248800B8607B68FB60FB68B3F1FF3F05D00A4B7F
:102498001B781A46FB681344FB6000BFFFF7E0FF98
:1024A8000246BB68D31AFA689A42F7D800BF00BF41
:1024B8001037BD4680BD00BF0800002080B584B03D
:1024C80000AF78600023FB737B68002B01D10123E8
:1024D80033E07B681B6C002B09D1786808F006FD97
:1024E8007B6800225A647B68002283F83C207B6862
:1024F8001B6C03F01003002B18D17B681B6C23F4B2
:10250800885323F0020343F002027B681A64786858
:1025180000F0C0FA7B6800225A647B681B6C23F0C9
:10252800030343F001027B681A6401E00123FB7393
:102538007B68002283F83C20FB7B18461037BD4699
:1025480080BD000080B485B000AF78600023BB6018
:102558007B6893F83C30012B01D10223A5E07B680E
:10256800012283F83C207B681B689B6803F0010309
:10257800012B18D07B681B689A687B681B6842F03F
:1025880001029A604B4B1B684B4AA2FB03239A0C2F
:1025980013465B001344BB6002E0BB68013BBB60B1
:1025A800BB68002BF9D17B681B689B6803F00103AB
:1025B800012B79D17B681B6C23F4E06323F00103C2
:1025C80043F480727B681A647B681B685B6803F459
:1025D8008063002B07D07B681B6C23F4405343F4C3
:1025E80080527B681A647B681B6C03F48053B3F5D4
:1025F800805F06D17B685B6C23F006027B685A64B7
:1026080002E07B6800225A647B68002283F83C2041
:102618002A4BFB607B681B686FF022021A60FB681C
:102628005B6803F01F03002B2AD17B681B68244AD0
:10263800934215D07B681B68224A934205D11F4BF1
:102648005B6803F01F03002B0AD07B681B681E4AD7
:10265800934229D1194B5B6803F01003002B23D157
:102668007B681B689B6803F04053002B1CD17B6878
:102678001B689A687B681B6842F080429A6013E086
:102688007B681B680E4A93420ED17B681B689B6867
:1026980003F04053002B07D17B681B689A687B685E
:1026A8001B6842F080429A60002318461437BD46E2
:1026B80080BC70471C01002083DE1B4300230140BF
:1026C80000200140002101400022014080B483B075
:1026D80000AF78607B6893F83C30012B01D102236E
:1026E80021E07B68012283F83C207B681B689A689C
:1026F8007B681B6822F001029A607B681B689B68F4
:1027080003F00103002B09D17B681B6C23F4885369
:1027180023F0010343F001027B681A647B680022FE
:1027280083F83C20002318460C37BD4680BC704710
:1027380080B584B000AF786039600023FB607B68A7
:102748001B689B6803F48063B3F5806F13D17B68C3
:102758001B689B6803F48073B3F5807F0BD17B689B
:102768001B6C43F020027B681A647B68002283F8A4
:102778003C2001235CE0FFF773FEF8601AE03B6839
:10278800B3F1FF3F16D03B68002B07D0FFF768FE78
:102798000246FB68D31A3A689A420BD27B681B6CD4
:1027A80043F004027B681A647B68002283F83C20AB
:1027B80003233DE07B681B681B6803F00203022BC0
:1027C800DDD17B681B686FF012021A607B681B6C96
:1027D80043F400727B681A647B681B689B6803F08B
:1027E8004053002B23D17B681B7E002B1FD17B68B5
:1027F8001B68DB6A03F47003002B06D07B681B6838
:102808009B6803F48063002B11D17B681B6C23F455
:1028180080727B681A647B681B6C03F48053002BFE
:1028280005D17B681B6C43F001027B681A640023A6
:1028380018461037BD4680BD80B483B000AF7860BD
:102848007B681B68DB6C18460C37BD4680BC70473C
:1028580080B485B000AF786039600023BB607B68C6
:1028680093F83C30012B01D1022305E17B6801225A
:1028780083F83C203B681B68092B25D97B681B68BB
:10288800D9683B681B689BB21A4613465B00134421
:102898001E3B072202FA03F3DA437B681B680A40EF
:1028A800DA607B681B68D9683B689A683B681B6874
:1028B8009BB2184603465B0003441E3B9A407B6864
:1028C8001B680A43DA6022E07B681B6819693B6869
:1028D8001B689BB21A4613465B001344072202FA90
:1028E80003F3DA437B681B680A401A617B681B683C
:1028F80019693B689A683B681B689BB2184603468F
:102908005B0003449A407B681B680A431A613B6872
:102918005B68062B24D87B681B68596B3B685A6830
:1029280013469B001344053B1F2202FA03F3DA43C4
:102938007B681B680A405A637B681B68596B3B6855
:102948001B689BB218463B685A6813469B001344A1
:10295800053B00FA03F27B681B680A435A634CE0A4
:102968003B685B680C2B24D87B681B68196B3B6839
:102978005A6813469B001344233B1F2202FA03F3B1
:10298800DA437B681B680A401A637B681B68196B0B
:102998003B681B689BB218463B685A6813469B0005
:1029A8001344233B00FA03F27B681B680A431A634B
:1029B80023E07B681B68D96A3B685A6813469B000A
:1029C8001344413B1F2202FA03F3DA437B681B6876
:1029D8000A40DA627B681B68D96A3B681B689BB24D
:1029E80018463B685A6813469B001344413B00FA5B
:1029F80003F27B681B680A43DA62224BFB607B6840
:102A08001B68214A934209D13B681B68122B05D1E8
:102A1800FB685B6843F48002FB685A607B681B684C
:102A2800194A934223D13B681B68102B03D03B689B
:102A38001B68112B1BD1FB685B6843F40002FB6821
:102A48005A603B681B68102B11D1104B1B68104A49
:102A5800A2FB03239A0C13469B0013445B00BB6044
:102A680002E0BB68013BBB60BB68002BF9D17B6807
:102A7800002283F83C20002318461437BD4680BC4A
:102A8800704700BF00230140002001401C010020C6
:102A980083DE1B4380B485B000AF7860794BFB6060
:102AA800FB685B6823F44032FB685A60FB685A682D
:102AB8007B685B681A43FB685A607B681B685A68C6
:102AC8007B681B6822F480725A607B681B685968AF
:102AD8007B681B691A027B681B680A435A607B681B
:102AE8001B685A687B681B6822F040725A607B68D2
:102AF8001B6859687B689A687B681B680A435A6038
:102B08007B681B689A687B681B6822F400629A607D
:102B18007B681B6899687B68DA687B681B680A436E
:102B28009A607B689B6A584A934222D07B681B68EC
:102B38009A687B681B6822F070629A607B681B68E1
:102B480099687B689A6A7B681B680A439A607B6805
:102B58001B689A687B681B6822F040529A607B6801
:102B68001B6899687B68DA6A7B681B680A439A6005
:102B78000FE07B681B689A687B681B6822F07062AC
:102B88009A607B681B689A687B681B6822F04052D1
:102B98009A607B681B689A687B681B6822F002024F
:102BA8009A607B681B6899687B681B7E5A007B6803
:102BB8001B680A439A607B6893F82030002B1BD06F
:102BC8007B681B685A687B681B6842F400625A601D
:102BD8007B681B685A687B681B6822F460425A60ED
:102BE8007B681B6859687B685B6A013B5A037B6892
:102BF8001B680A435A6007E07B681B685A687B6851
:102C08001B6822F400625A607B681B68DA6A7B687A
:102C18001B6822F47002DA627B681B68D96A7B68D9
:102C2800DB69013B1A057B681B680A43DA627B682B
:102C38001B689A687B681B6822F400729A607B683C
:102C48001B6899687B6893F830305A027B681B6868
:102C58000A439A607B681B689A687B681B6822F441
:102C680080629A607B681B6899687B685B699A02D6
:102C78007B681B680A439A6000BF1437BD4680BC56
:102C8800704700BF002301400100000F80B584B0E9
:102C980000AF78607B68002B01D10123EDE07B68F1
:102CA80093F82030DBB2002B02D1786808F0E4F901
:102CB8007B681B681A687B681B6822F002021A602E
:102CC800FFF7CEFBF86012E0FFF7CAFB0246FB688D
:102CD800D31A0A2B0BD97B685B6A43F400327B68F2
:102CE8005A627B68052283F820200123C5E07B68AF
:102CF8001B685B6803F00203002BE5D17B681B6847
:102D08001A687B681B6842F001021A60FFF7A8FB8B
:102D1800F86012E0FFF7A4FB0246FB68D31A0A2BFF
:102D28000BD97B685B6A43F400327B685A627B6824
:102D3800052283F8202001239FE07B681B685B68DD
:102D480003F00103002BE5D07B681B7E012B08D123
:102D58007B681B681A687B681B6842F080021A60EF
:102D680007E07B681B681A687B681B6822F0800292
:102D78001A607B685B7E012B08D17B681B681A6828
:102D88007B681B6842F040021A6007E07B681B689A
:102D98001A687B681B6822F040021A607B689B7E79
:102DA800012B08D17B681B681A687B681B6842F096
:102DB80020021A6007E07B681B681A687B681B683A
:102DC80022F020021A607B68DB7E012B08D17B6829
:102DD8001B681A687B681B6822F010021A6007E0FB
:102DE8007B681B681A687B681B6842F010021A60CF
:102DF8007B681B7F012B08D17B681B681A687B687E
:102E08001B6842F008021A6007E07B681B681A68B2
:102E18007B681B6822F008021A607B685B7F012BC5
:102E280008D17B681B681A687B681B6842F004023B
:102E38001A6007E07B681B681A687B681B6822F0C9
:102E480004021A607B689A687B68DB681A437B68AF
:102E58001B691A437B685B6942EA03017B685B680C
:102E68005A1E7B681B680A43DA617B6800225A6233
:102E78007B68012283F82020002318461037BD46BE
:102E880080BD000080B487B000AF786039607B688F
:102E98001B687B617B6893F82030FB74FB7C012BFB
:102EA80003D0FB7C022B40F0BE80654B7B617B69C5
:102EB800D3F8003243F001027B69C3F800227B6932
:102EC800D3F8003223F47C527B69C3F800227B6973
:102ED800D3F800223B685B6A1B021A437B69C3F87C
:102EE80000223B685B6903F01F03012202FA03F327
:102EF800FB607B69D3F81C22FB68DB431A407B69C3
:102F0800C3F81C223B68DB69002B23D17B69D3F80B
:102F18000C22FB68DB431A407B69C3F80C223B6830
:102F2800DB6819043B685B689BB23A6852691943CD
:102F38007B69483243F832103B689B6819043B6848
:102F48001B689AB23B685B690A4379694833DB00BE
:102F58000B445A603B68DB69012B22D17B69D3F8AB
:102F68000C22FB681A437B69C3F80C223B681B6878
:102F780019043B685B689BB23A68526919437B69DC
:102F8800483243F832103B689B6819043B68DB6899
:102F98009AB23B685B690A4379694833DB000B44A2
:102FA8005A603B689B69002B09D17B69D3F80422DE
:102FB800FB68DB431A407B69C3F8042207E07B699E
:102FC800D3F80422FB681A437B69C3F804223B68E0
:102FD8001B69002B09D17B69D3F81422FB68DB43FA
:102FE8001A407B69C3F8142207E07B69D3F81422DE
:102FF800FB681A437B69C3F814223B681B6A012BE0
:1030080007D17B69D3F81C22FB681A437B69C3F894
:103018001C227B69D3F8003223F001027B69C3F8D4
:103028000022002306E07B685B6A43F480227B6809
:103038005A62012318461C37BD4680BC704700BF42
:103048000064004080B584B000AF78607B6893F876
:103058002030DBB2012B2ED17B68022283F820209E
:103068007B681B681A687B681B6822F001021A607B
:10307800FFF7F6F9F86012E0FFF7F2F90246FB688D
:10308800D31A0A2B0BD97B685B6A43F400327B683E
:103098005A627B68052283F82020012312E07B68AE
:1030A8001B685B6803F00103002BE5D17B680022F5
:1030B8005A62002306E07B685B6A43F400227B685F
:1030C8005A62012318461037BD4680BD80B489B0C6
:1030D80000AFF860B9607A603B60FB6893F8203015
:1030E800FB77FB681B689B68BB61FB7F012B03D0E8
:1030F800FB7F022B40F0B880BB6903F08063002B94
:103108000AD1BB6903F00063002B05D1BB6903F04A
:103118008053002B00F0A080BB691B0E03F0030353
:103128007B617B69022B07D9FB685B6A43F4000269
:10313800FB685A6201239EE001227B699A403B6842
:103148001A60BB689B68002B0DD1BB681B685A05C9
:10315800BB68DB68F96809681A437B6918331B0187
:103168000B441A600FE0BB685B68DA00BB689B68B9
:103178001A43BB68DB68F96809681A437B69183326
:103188001B010B441A60FB681968BB681A697B69E4
:1031980018331B010B4404331A60BB681B7D012BD9
:1031A80011D1FB681A687B6918331B011344043377
:1031B8001B68FA68116843F480727B6918331B0135
:1031C8000B4404331A607B6807331B781A067B6844
:1031D80006331B781B041A437B6805331B781B02D4
:1031E80013437A68043212781046FA68116843EA81
:1031F80000027B691B010B4403F5C6731A607B68E8
:1032080003331B781A067B6802331B781B041A43A6
:103218007B6801331B781B0213437A6812781046C7
:10322800FA68116843EA00027B691B010B4403F545
:10323800C4731A60FB681A687B6918331B0113444E
:103248001B68FA68116843F001027B6918331B0197
:103258000B441A6000230EE0FB685B6A43F400121B
:10326800FB685A62012306E0FB685B6A43F480222C
:10327800FB685A62012318462437BD4680BC704754
:1032880080B487B000AFF860B9607A603B60FB68D3
:1032980093F82030FB75FB7D012B03D0FB7D022BBF
:1032A80040F0F380BB68002B0ED1FB681B68DB681D
:1032B80003F00303002B16D1FB685B6A43F400128A
:1032C800FB685A620123E7E0FB681B681B6903F08F
:1032D8000303002B07D1FB685B6A43F40012FB6809
:1032E8005A620123D8E0FB681A68BB681B331B01CC
:1032F80013441B6803F004027B689A607B689B6830
:10330800002B0CD1FB681A68BB681B331B011344E4
:103318001B685B0DC3F30A027B681A600BE0FB684D
:103328001A68BB681B331B0113441B68DB0823F0B6
:1033380060427B685A60FB681A68BB681B331B01D4
:1033480013441B6803F002027B68DA60FB681A68A2
:10335800BB681B331B01134404331B6803F00F02C3
:103368007B681A61FB681A68BB681B331B0113442E
:1033780004331B681B0ADAB27B689A61FB681A6817
:10338800BB681B331B01134404331B681B0C9AB224
:103398007B685A61FB681A68BB681B01134403F514
:1033A800DC731B68DAB23B681A70FB681A68BB6882
:1033B8001B01134403F5DC731B681A0A3B680133CD
:1033C800D2B21A70FB681A68BB681B01134403F574
:1033D800DC731B681A0C3B680233D2B21A70FB68A4
:1033E8001A68BB681B01134403F5DC731B681A0ECB
:1033F8003B680333D2B21A70FB681A68BB681B01BA
:10340800134403F5DE731A683B680433D2B21A70AA
:10341800FB681A68BB681B01134403F5DE731B685D
:103428001A0A3B680533D2B21A70FB681A68BB687F
:103438001B01134403F5DE731B681A0C3B68063343
:10344800D2B21A70FB681A68BB681B01134403F5F3
:10345800DE731B681A0E3B680733D2B21A70BB685A
:10346800002B08D1FB681B68DA68FB681B6842F010
:103478002002DA6007E0FB681B681A69FB681B68B2
:1034880042F020021A61002306E0FB685B6A43F4FD
:103498008022FB685A62012318461C37BD4680BC4F
:1034A800704780B485B000AF786039607B6893F866
:1034B8002030FB73FB7B012B02D0FB7B022B09D155
:1034C8007B681B6859697B681B683A680A435A61BC
:1034D800002306E07B685B6A43F480227B685A62BB
:1034E800012318461437BD4680BC704780B58AB0A2
:1034F80000AF786000237B627B681B685B693B6276
:103508007B681B685B68FB617B681B689B68BB61A9
:103518007B681B68DB687B617B681B681B693B6198
:103528007B681B689B69FB603B6A03F00103002B07
:103538007CD0BB6903F00103002B23D07B681B6898
:1035480001229A60BB6903F00203002B03D078685C
:1035580000F083F916E0BB6903F00403002B04D0E4
:103568007B6A43F400637B620CE0BB6903F00803E9
:10357800002B04D07B6A43F480537B6202E07868B6
:1035880000F086F9BB6903F48073002B24D07B68B4
:103598001B684FF480729A60BB6903F40073002BB8
:1035A80003D0786800F062F916E0BB6903F4806321
:1035B800002B04D07B6A43F400537B620CE0BB69A8
:1035C80003F40063002B04D07B6A43F480437B62DE
:1035D80002E0786800F065F9BB6903F48033002BDA
:1035E80024D07B681B684FF480329A60BB6903F46F
:1035F8000033002B03D0786800F041F916E0BB696E
:1036080003F48023002B04D07B6A43F400437B62DD
:103618000CE0BB6903F40023002B04D07B6A43F45D
:1036280080337B6202E0786800F044F93B6A03F07B
:103638000803002B0CD07B6903F01003002B07D084
:103648007B6A43F400737B627B681B681022DA6034
:103658003B6A03F00403002B0BD07B6903F00803DB
:10366800002B06D07B681B680822DA60786800F0B7
:103678002AF93B6A03F00203002B09D07B681B6818
:10368800DB6803F00303002B02D078680AF021FD01
:103698003B6A03F04003002B0CD03B6903F0100396
:1036A800002B07D07B6A43F480637B627B681B68CE
:1036B80010221A613B6A03F02003002B0BD03B69F0
:1036C80003F00803002B06D07B681B6808221A61E8
:1036D800786800F00AF93B6A03F01003002B09D060
:1036E8007B681B681B6903F00303002B02D0786812
:1036F80000F0F2F83B6A03F40033002B0BD0FB69AF
:1037080003F01003002B06D07B681B6810225A6058
:10371800786800F0F3F83B6A03F48033002B0BD091
:10372800FB6903F00803002B06D07B681B6808229E
:103738005A60786800F0EBF83B6A03F40043002B0A
:103748007BD0FB6903F00403002B72D03B6A03F4BF
:103758008073002B08D0FB6803F00103002B03D013
:103768007B6A43F001037B623B6A03F40073002B1E
:1037780008D0FB6803F00203002B03D07B6A43F0F8
:1037880002037B623B6A03F48063002B08D0FB686A
:1037980003F00403002B03D07B6A43F004037B622D
:1037A8003B6A03F40063002B43D0FB6803F070030B
:1037B800002B3ED0FB6803F07003602B2BD0602BEE
:1037C8002ED8502B22D0502B2AD8402B19D0402B42
:1037D80026D8302B10D0302B22D8102B02D0202BFB
:1037E80005D01DE07B6A43F008037B6219E07B6A21
:1037F80043F010037B6214E07B6A43F020037B6292
:103808000FE07B6A43F040037B620AE07B6A43F087
:1038180080037B6205E07B6A43F480737B6200E08F
:1038280000BF7B681B689A697B681B6822F070027E
:103838009A617B681B6804225A607B6A002B08D057
:103848007B685A6A7B6A1A437B685A62786800F018
:1038580067F800BF2837BD4680BD80B483B000AF8D
:10386800786000BF0C37BD4680BC704780B483B019
:1038780000AF786000BF0C37BD4680BC704780B48D
:1038880083B000AF786000BF0C37BD4680BC70477E
:1038980080B483B000AF786000BF0C37BD4680BCF1
:1038A800704780B483B000AF786000BF0C37BD4666
:1038B80080BC704780B483B000AF786000BF0C371D
:1038C800BD4680BC704780B483B000AF786000BF4D
:1038D8000C37BD4680BC704780B483B000AF7860B9
:1038E80000BF0C37BD4680BC704780B483B000AFC2
:1038F800786000BF0C37BD4680BC704780B483B089
:1039080000AF786000BF0C37BD4680BC704780B4FC
:1039180083B000AF786000BF0C37BD4680BC7047ED
:1039280080B483B000AF786000BF0C37BD4680BC60
:103938007047000080B485B000AF78607B6803F002
:103948000703FB600C4BDB68BB60BA684FF6FF03EC
:103958001340BB60FB681A02BB68134343F0BF63A4
:1039680043F40033BB60044ABB68D36000BF14371C
:10397800BD4680BC704700BF00ED00E080B400AFDA
:10398800044BDB681B0A03F007031846BD4680BCDE
:10399800704700BF00ED00E080B483B000AF03467D
:1039A800FB7197F90730002B0BDBFB7903F01F0243
:1039B800064997F907305B09012000FA02F241F83D
:1039C800232000BF0C37BD4680BC704700E100E0F3
:1039D80080B483B000AF03463960FB7197F90730B4
:1039E800002B0ADB3B68DAB20C4997F90730120161
:1039F800D2B20B4483F800230AE03B68DAB20849E4
:103A0800FB7903F00F03043B1201D2B20B441A7680
:103A180000BF0C37BD4680BC704700BF00E100E026
:103A280000ED00E080B489B000AFF860B9607A605A
:103A3800FB6803F00703FB61FB69C3F10703042B71
:103A480028BF0423BB61FB690433062B02D9FB6939
:103A5800033B00E000237B614FF0FF32BB6902FAB1
:103A680003F3DA43BB681A407B699A404FF0FF3191
:103A78007B6901FA03F3D9437B680B40134318466B
:103A88002437BD4680BC704780B582B000AF7860EF
:103A98007B68013BB3F1807F01D301230FE00A4A21
:103AA8007B68013B53600F214FF0FF30FFF790FF19
:103AB800054B00229A60044B07221A60002318461F
:103AC8000837BD4680BD00BF10E000E080B582B079
:103AD80000AF78607868FFF72DFF00BF0837BD4654
:103AE80080BD80B586B000AF0346B9607A60FB73CD
:103AF80000237B61FFF742FF78617A68B9687869CB
:103B0800FFF790FF024697F90F3011461846FFF766
:103B18005FFF00BF1837BD4680BD80B582B000AFDB
:103B28000346FB7197F907301846FFF735FF00BFCA
:103B38000837BD4680BD80B582B000AF7860786830
:103B4800FFF7A2FF034618460837BD4680BD0000B0
:103B580080B586B000AF786000237B61FEF780FCFB
:103B680038617B68002B01D1012399E07B68002232
:103B780083F834207B68022283F835207B681B6831
:103B88001A687B681B6822F001021A600FE0FEF7D2
:103B980067FC02463B69D31A052B08D97B682022AB
:103BA8005A657B68032283F83520032378E07B6815
:103BB8001B681B6803F00103002BE8D17B681B68B6
:103BC8001B687B617A69384B13407B617B685A6854
:103BD8007B689B681A437B68DB681A437B681B69B0
:103BE8001A437B685B691A437B689B691A437B6845
:103BF800DB691A437B681B6A13437A6913437B6149
:103C08007B685B6A042B07D17B68DA6A7B681B6B6D
:103C180013437A6913437B617B681B687A691A606E
:103C28007B681B685B697B617B6923F007037B61A9
:103C38007B685B6A7A6913437B617B685B6A042BE8
:103C480017D17B689B6A7A6913437B617B68DB6A5F
:103C5800002B0ED0786800F009FA0346002B08D034
:103C68007B6840225A657B68012283F8352001234E
:103C780016E07B681B687A695A61786800F0C2F9B7
:103C88000346FB607B68DB6D3F229A40FB689A60C5
:103C98007B6800225A657B68012283F8352000235F
:103CA80018461837BD4680BD3F8010F080B483B0F9
:103CB80000AF78607B6893F83530DBB2022B04D014
:103CC8007B6880225A6501230CE07B68052283F813
:103CD80035207B681B681A687B681B6822F0010224
:103CE8001A60002318460C37BD4680BC7047000098
:103CF80080B586B000AF78600023BB608E4B1B6830
:103D08008E4AA2FB03239B0A7B617B689B6D3B6108
:103D18003B691B68FB607B68DB6D08229A40FB6887
:103D28001340002B1AD07B681B681B6803F0040340
:103D3800002B13D07B681B681A687B681B6822F00D
:103D480004021A607B68DB6D08229A403B699A601E
:103D58007B685B6D43F001027B685A657B68DB6DAD
:103D680001229A40FB681340002B12D07B681B6825
:103D78005B6903F08003002B0BD07B68DB6D0122AD
:103D88009A403B699A607B685B6D43F002027B68EE
:103D98005A657B68DB6D04229A40FB681340002B50
:103DA80012D07B681B681B6803F00203002B0BD042
:103DB8007B68DB6D04229A403B699A607B685B6D87
:103DC80043F004027B685A657B68DB6D10229A40D9
:103DD800FB681340002B43D07B681B681B6803F00B
:103DE8000803002B3CD07B68DB6D10229A403B69AE
:103DF8009A607B681B681B6803F48023002B18D02B
:103E08007B681B681B6803F40023002B08D17B68C0
:103E18001B6C002B24D07B681B6C786898471FE0CC
:103E28007B689B6C002B1BD07B689B6C78689847E1
:103E380016E07B681B681B6803F48073002B07D1AE
:103E48007B681B681A687B681B6822F008021A6086
:103E58007B681B6C002B03D07B681B6C78689847C9
:103E68007B68DB6D20229A40FB681340002B00F032
:103E78008F807B681B681B6803F01003002B00F021
:103E880087807B68DB6D20229A403B699A607B685B
:103E980093F83530DBB2052B36D17B681B681A687E
:103EA8007B681B6822F016021A607B681B685A69D7
:103EB8007B681B6822F080025A617B681B6C002BB0
:103EC80003D17B689B6C002B07D07B681B681A6842
:103ED8007B681B6822F008021A607B68DB6D3F2252
:103EE8009A403B699A607B68002283F834207B689B
:103EF800012283F835207B681B6D002B7ED07B6800
:103F08001B6D7868984779E07B681B681B6803F429
:103F18008023002B1DD07B681B681B6803F40023DB
:103F2800002B0DD17B685B6C002B31D07B685B6C00
:103F3800786898472CE000BF1C010020B5814E1B13
:103F48007B68DB6B002B23D07B68DB6B786898473A
:103F58001EE07B681B681B6803F48073002B0FD17D
:103F68007B681B681A687B681B6822F010021A605D
:103F78007B68002283F834207B68012283F835208F
:103F88007B68DB6B002B03D07B68DB6B786898471A
:103F98007B685B6D002B32D07B685B6D03F001039F
:103FA800002B22D07B68052283F835207B681B68AC
:103FB8001A687B681B6822F001021A60BB6801332B
:103FC800BB607A699A4207D37B681B681B6803F059
:103FD8000103002BF2D100E000BF7B68002283F8C8
:103FE80034207B68012283F835207B68DB6C002B4A
:103FF80005D07B68DB6C7868984700E000BF18370D
:10400800BD4680BD80B485B000AF78607B681B6812
:10401800DBB2103B134AA2FB03231B09FB60124AC5
:10402800FB6813441B781A467B68DA65FB68032B28
:1040380009D97B681B6823F47F7323F003031A1DD7
:104048007B689A6507E07B681B6823F47F7323F01D
:1040580003037A6893657B689B6D18461437BD46E1
:1040680080BC7047ABAAAAAA40F8000880B485B003
:1040780000AF78600023FB737B689B6ABB607B683A
:104088009B69002B1FD1BB68032B56D801A252F89D
:1040980023F000BFAD400008BF400008AD40000855
:1040A800434100087B68DB6A03F08073002B46D02D
:1040B8000123FB7343E07B68DB6AB3F1C07F40D127
:1040C8000123FB733DE07B689B69B3F5005F21D159
:1040D800BB68032B37D801A252F823F0F54000083B
:1040E800FB400008F54000080D4100080123FB7360
:1040F80030E07B68DB6A03F08073002B25D0012356
:10410800FB7322E07B68DB6AB3F1C07F1FD1012318
:10411800FB731CE0BB68022B03D9BB68032B03D0DD
:1041280018E00123FB7315E07B68DB6A03F08073FA
:10413800002B0ED00123FB730BE000BF0AE000BF89
:1041480008E000BF06E000BF04E000BF02E000BFD7
:1041580000E000BFFB7B18461437BD4680BC7047A3
:1041680080B489B000AF7860396000237B61002398
:104178003B610023BB610023FB616BE10122FB690A
:1041880002FA03F37B613B681B687A6913403B6161
:104198003A697B699A4240F05A813B685B68012B17
:1041A8000BD03B685B68022B07D03B685B68112B20
:1041B80003D03B685B68122B30D17B689B68BB617E
:1041C800FB695B00032202FA03F3DB43BA6913407D
:1041D800BB613B68DA68FB695B0002FA03F3BA6902
:1041E8001343BB617B68BA699A607B685B68BB6193
:1041F8000122FB6902FA03F3DB43BA691340BB618E
:104208003B685B681B0903F00102FB6902FA03F3D0
:10421800BA691343BB617B68BA695A607B68DB681B
:10422800BB61FB695B00032202FA03F3DB43BA6953
:104238001340BB613B689A68FB695B0002FA03F3B1
:10424800BA691343BB617B68BA69DA603B685B682B
:10425800022B03D03B685B68122B23D1FB69DA0879
:104268007B68083253F82230BB61FB6903F007030F
:104278009B000F2202FA03F3DB43BA691340BB61C8
:104288003B681A69FB6903F007039B0002FA03F312
:10429800BA691343BB61FB69DA087B680832B969FC
:1042A80043F822107B681B68BB61FB695B00032233
:1042B80002FA03F3DB43BA691340BB613B685B68EE
:1042C80003F00302FB695B0002FA03F3BA691343C4
:1042D800BB617B68BA691A603B685B6803F080530E
:1042E800002B00F0B4800023FB605F4B5B6C5E4AE0
:1042F80043F4804353645C4B5B6C03F48043FB6082
:10430800FB685A4AFB699B08023352F82330BB61A9
:10431800FB6903F003039B000F2202FA03F3DB435C
:10432800BA691340BB617B68514A93422BD07B68C2
:10433800504A934225D07B684F4A93421FD07B68EE
:104348004E4A934219D07B684D4A934213D07B68FA
:104358004C4A93420DD07B684B4A934207D07B6806
:104368004A4A934201D107230EE008230CE00623B2
:104378000AE0052308E0042306E0032304E00223FF
:1043880002E0012300E00023FA6902F00302920030
:104398009340BA691343BB613449FB699B080233F4
:1043A800BA6941F823203A4B1B68BB613B69DB4380
:1043B800BA691340BB613B685B6803F48033002B28
:1043C80003D0BA693B691343BB61314ABB691360C7
:1043D8002F4B5B68BB613B69DB43BA691340BB6128
:1043E8003B685B6803F40033002B03D0BA693B6970
:1043F8001343BB61264ABB695360254B9B68BB616D
:104408003B69DB43BA691340BB613B685B6803F4F3
:104418008013002B03D0BA693B691343BB611C4A64
:10442800BB6993601A4BDB68BB613B69DB43BA69C4
:104438001340BB613B685B6803F40013002B03D097
:10444800BA693B691343BB61114ABB69D360FB6915
:104458000133FB61FB690F2B7FF690AE00BF00BFF5
:104468002437BD4680BC7047003802400038014000
:10447800000002400004024000080240000C024014
:10448800001002400014024000180240001C0240C4
:10449800003C014080B485B000AF78600B467B805B
:1044A8007B681A697B881340002B02D00123FB73B9
:1044B80001E00023FB73FB7B18461437BD4680BC24
:1044C800704780B483B000AF78600B467B8013469A
:1044D8007B707B78002B03D07A887B689A6103E035
:1044E8007B881A047B689A6100BF0C37BD4680BC84
:1044F8007047000080B582B000AF0346FB80084BD0
:104508005A69FB881340002B06D0054AFB88536183
:10451800FB88184609F028F800BF0837BD4680BD5B
:10452800003C014080B584B000AF78607B68002B08
:1045380001D101232BE17B6893F83D30DBB2002BDE
:1045480006D17B68002283F83C20786806F0DCFFFF
:104558007B68242283F83D207B681B681A687B6887
:104568001B6822F001021A607B681B681A687B6866
:104578001B6842F400421A607B681B681A687B68F3
:104588001B6822F400421A6001F004FFF8607B689F
:104598005B68814A934207D8FB68804A934294BF7C
:1045A80001230023DBB206E0FB687D4A934294BFF7
:1045B80001230023DBB2002B01D00123E7E0FB68D5
:1045C800784AA2FB03239B0CBB607B681B685B6873
:1045D80023F03F017B681B68BA680A435A607B680E
:1045E8001B681B6A23F03F017B685B686A4A934239
:1045F80002D8BB68013309E0BB684FF4967202FB2E
:1046080003F3694AA2FB03239B0901337A68126802
:104618000B4313627B681B68DB6923F44F4222F06B
:10462800FF027B685B685C498B4219D8FB68591E9E
:104638007B685B685B00B1FBF3F3591C40F6FC73C5
:104648000B40002B0AD0FB68591E7B685B685B0037
:10465800B1FBF3F30133C3F30B0351E004234FE041
:104668007B689B68002B11D1FB68581E7B685968D2
:104678000B465B000B44B0FBF3F30133C3F30B03AE
:10468800002B0CBF01230023DBB212E0FB68581E8D
:104698007B6859680B469B000B4499000B44B0FBA0
:1046A800F3F30133C3F30B03002B0CBF01230023E7
:1046B800DBB2002B01D0012322E07B689B68002B32
:1046C8000ED1FB68581E7B6859680B465B000B448B
:1046D800B0FBF3F30133C3F30B0343F400430FE0E0
:1046E800FB68581E7B6859680B469B000B44990071
:1046F8000B44B0FBF3F30133C3F30B0343F4404320
:10470800796809681343CB617B681B681B6823F0D1
:10471800C0017B68DA697B681B6A1A437B681B687F
:104728000A431A607B681B689B6823F4034323F0E1
:10473800FF037A6811697A68D26811437A68126847
:104748000B4393607B681B68DB6823F0FF017B6881
:104758005A697B689B691A437B681B680A43DA605D
:104768007B681B681A687B681B6842F001021A6044
:104778007B6800221A647B68202283F83D207B68CE
:1047880000221A637B68002283F83E200023184623
:104798001037BD4680BD00BFA08601007F841E0083
:1047A800FF083D0083DE1B43D34D621080B584B003
:1047B80000AF78607B68002B01D101232BE07B6878
:1047C8001B684CF6CC421A607B681B6845F2555250
:1047D8001A607B681B687A6852685A607B681B6835
:1047E8007A6892689A60FDF73BFEF86008E0FDF78A
:1047F80037FE0246FB68D31A302B01D903230AE09F
:104808007B681B68DB68002BF1D17B681B684AF664
:10481800AA221A60002318461037BD4680BD80B40E
:1048280083B000AF78607B681B684AF6AA221A60DA
:10483800002318460C37BD4680BC7047F0B58FB0D2
:104848000AAF78607B68002B01D101230FE17B68F8
:104858001B68BB607B6893F8BD33DBB2002B06D1C5
:104868007B68002283F8BC23786808F005F87B6829
:10487800032283F8BD23BB68DB6B03F48073002B32
:1048880002D17B6800221A617B681B68184603F016
:10489800D7FD7B681B683B607E686D4606F1100497
:1048A8000FCC0FC50FCC0FC594E8030085E80300B3
:1048B800331D0ECB386803F0AFFC0346002B05D040
:1048C8007B68022283F8BD230123D0E07B681B6844
:1048D8000021184603F0C4FD0023FB734AE0FA7B6D
:1048E80079681346DB009B1A9B000B443D33012279
:1048F8001A70FA7B79681346DB009B1A9B000B44FD
:104908003C33FA7B1A70FA7BFB7B98B279681346C2
:10491800DB009B1A9B000B44423302461A80FA7B49
:1049280079681346DB009B1A9B000B443F33002237
:104938001A70FA7B79681346DB009B1A9B000B44BC
:10494800443300221A60FA7B79681346DB009B1A0D
:104958009B000B44483300221A60FA7B796813469F
:10496800DB009B1A9B000B44503300221A60FB7B30
:104978000133FB73FA7B7B685B689A42AFD30023F1
:10498800FB7344E0FA7B79681346DB009B1A9B00B3
:104998000B4403F2FD1300221A70FA7B7968134660
:1049A800DB009B1A9B000B4403F5FE73FA7B1A701D
:1049B800FA7B79681346DB009B1A9B000B4403F2D1
:1049C800FF1300221A70FA7B79681346DB009B1AE2
:1049D8009B000B4403F5017300221A60FA7B796887
:1049E8001346DB009B1A9B000B4403F5027300225D
:1049F8001A60FA7B79681346DB009B1A9B000B440C
:104A080003F5047300221A60FB7B0133FB73FA7B06
:104A18007B685B689A42B5D37B681B683B607E689D
:104A28006D4606F110040FCC0FC50FCC0FC594E8E6
:104A3800030085E80300331D0ECB386803F03AFD08
:104A48000346002B05D07B68022283F8BD2301238F
:104A58000DE07B68002283F838207B68012283F808
:104A6800BD237B681B68184604F021FD0023184607
:104A78001437BD46F0BD80B584B000AF78607B6860
:104A88001B68FB607B6893F8BC33012B01D10223C0
:104A980020E07B68012283F8BC237B689B6A012B9A
:104AA80009D17B689B69012B05D0FB689B6B43F49C
:104AB8008032FB689A637B681B68184604F0DFFC49
:104AC8007B681B68184603F0ABFC7B68002283F800
:104AD800BC23002318461037BD4680BD90B58DB065
:104AE80000AF78607B681B683B623B6AFB617B6850
:104AF8001B68184604F081FD0346002B40F08E83A6
:104B08007B681B68184604F0EAFC0346002B00F09B
:104B180084837B681B68184604F0E1FC034603F0B5
:104B28000203022B07D17B681B685A697B681B68E4
:104B380002F002025A617B681B68184604F0CFFC39
:104B4800034603F40023B3F5002F7BD100237B62D7
:104B58007B681B68184604F0D4FCB8626FE0BB6A37
:104B680003F00103002B64D07B681B687A6AD2B219
:104B78001146184604F0F7FCB861BB6903F001035D
:104B8800002B0CD07B6A5A01FB69134403F5306390
:104B98001A4601239360796A786800F00DFEBB69B4
:104BA80003F00803002B0CD0796A786800F00CFF3A
:104BB8007B6A5A01FB69134403F530631A460823DC
:104BC8009360BB6903F01003002B08D07B6A5A017D
:104BD800FB69134403F530631A4610239360BB69DD
:104BE80003F02003002B15D07B681B69012B08D12B
:104BF8007B6818687B6803F571731A46012104F015
:104C08003DFD7B6A5A01FB69134403F530631A467C
:104C180020239360BB6903F40053002B09D07B6AFF
:104C28005A01FB69134403F530631A464FF40053E5
:104C380093607B6A01337B62BB6A5B08BB62BB6AB9
:104C4800002B8CD17B681B68184604F048FC03468F
:104C580003F48023B3F5802F40F0C4807B681B6881
:104C6800184604F067FCB86200237B62B6E0BB6AB2
:104C780003F00103002B00F0AB807B681B687A6AA5
:104C8800D2B21146184604F08BFCB861BB6903F038
:104C98000103002B5BD07B6A03F00F03012202FAA9
:104CA80003F37B61FB6903F500635A6B7B69DB43A4
:104CB800F96901F5006113404B637B6A5A01FB698E
:104CC800134403F510631A46012393607B681B693C
:104CD800012B1BD179687A6A1346DB009B1A9B006B
:104CE8000B444833196878687A6A1346DB009B1AC4
:104CF8009B00034444331B68194478687A6A134656
:104D0800DB009B1A9B000344483319607B6ADBB2C3
:104D18001946786807F031FE7B681B69012B16D1AC
:104D28007B6A002B13D179687A6A1346DB009B1AD9
:104D38009B000B4450331B68002B08D17B68186814
:104D48007B6803F571731A46012104F097FCBB696F
:104D580003F00803002B08D07B6A5A01FB6913444F
:104D680003F510631A4608239360BB6903F0100328
:104D7800002B08D07B6A5A01FB69134403F51063C2
:104D88001A4610239360BB6903F04003002B08D038
:104D98007B6A5A01FB69134403F510631A464023E2
:104DA8009360BB6903F00203002B08D07B6A5A01A9
:104DB800FB69134403F510631A4602239360BB6929
:104DC80003F08003002B03D0796A786800F066FC52
:104DD8007B6A01337B62BB6A5B08BB62BB6A002BE0
:104DE8007FF445AF7B681B68184604F078FB0346E0
:104DF80003F00043B3F1004F22D1FB6903F50063D0
:104E08005B68FA6902F5006223F0010353607B686E
:104E180093F8F433012B08D17B68002283F8F4233C
:104E28000021786800F086FE02E0786807F01CFE32
:104E38007B681B685A697B681B6802F000425A61EC
:104E48007B681B68184604F04AFB034603F40063BA
:104E5800B3F5006F12D1FB6903F500639B6803F09B
:104E68000103012B02D1786807F0D8FD7B681B6825
:104E78005A697B681B6802F400625A617B681B6888
:104E8800184604F02CFB034603F48053B3F5805F07
:104E980040F0A780FB6903F500635B68FA6902F5D7
:104EA800006223F0010353607B681B6810211846D9
:104EB80003F072FC0023FB6236E0FB6A5A01FB69CF
:104EC800134403F510631A464FF67F339360FB6A69
:104ED8005A01FB69134403F510631B68FA6A510110
:104EE800FA690A4402F5106223F400131360FB6A9E
:104EF8005A01FB69134403F530631A464FF67F33B2
:104F08009360FB6A5A01FB69134403F530631B681D
:104F1800FA6A5101FA690A4402F5306223F400136F
:104F28001360FB6A0133FB627B685B68FA6A9A422A
:104F3800C3D3FB6903F50063DB69FA6902F5006214
:104F480043F00113D3617B681B6B002B16D0FB6900
:104F580003F50063D3F88430FA6902F5006243F080
:104F68000B03C2F88430FB6903F500635B6CFA69D4
:104F780002F5006243F00B03536415E0FB6903F587
:104F880000635B69FA6902F5006243F4005343F079
:104F98002B035361FB6903F500631B69FA6902F58A
:104FA800006243F00B031361FB6903F500631B68A0
:104FB800FA6902F5006223F4FE6313607B681868DF
:104FC8007B681B69D9B27B6803F571731A4604F0D4
:104FD80055FB7B681B685A697B681B6802F4805222
:104FE8005A617B681B68184604F079FA034603F493
:104FF8000053B3F5005F24D17B681B68184604F0A2
:1050080009FB7B681B68184603F022FC03461A4616
:105018007B68DA607B681C6801F0B2F901467B683E
:10502800DB68DBB21A46204603F058F9786807F0C7
:10503800CCFC7B681B685A697B681B6802F40052C9
:105048005A617B681B68184604F049FA034603F066
:105058001003102B61D17B681B689A697B681B68F9
:1050680022F010029A613B6A1B6A3B613B6903F0BC
:105078000F021346DB009B1A9B0003F5FC737A684A
:1050880013440433FB603B695B0C03F00F03022BF2
:1050980024D13A6947F6F0731340002B35D0FB68EA
:1050A800D9683B691B099BB2C3F30A039BB21A4632
:1050B800386A04F0C5F8FB68DA683B691B09C3F372
:1050C8000A031A44FB68DA60FB689A693B691B09A2
:1050D800C3F30A031A44FB689A6116E03B695B0C48
:1050E80003F00F03062B10D17B6803F571730822B8
:1050F8001946386A04F0A4F8FB689A693B691B09E9
:10510800C3F30A031A44FB689A617B681B689A69AF
:105118007B681B6842F010029A617B681B6818461E
:1051280004F0DDF9034603F00803082B0AD1786878
:1051380007F03DFC7B681B685A697B681B6802F0B6
:1051480008025A617B681B68184604F0C8F90346D0
:1051580003F48013B3F5801F0FD100237B627B6AB1
:10516800DBB21946786807F09FFC7B681B685A69B0
:105178007B681B6802F480125A617B681B681846BA
:1051880004F0ADF9034603F40013B3F5001F0FD183
:1051980000237B627B6ADBB21946786807F072FCF1
:1051A8007B681B685A697B681B6802F400125A61A5
:1051B8007B681B68184604F092F9034603F08043A5
:1051C800B3F1804F0AD1786807F080FC7B681B68D0
:1051D8005A697B681B6802F080425A617B681B68C9
:1051E800184604F07CF9034603F00403042B15D198
:1051F8007B681B685B683B613B6903F00403002B19
:1052080002D0786807F070FC7B681B6859687B6877
:105218001B683A690A435A6000E000BF3437BD464C
:1052280090BD80B582B000AF78600B46FB707B689C
:1052380093F8BC33012B01D1022313E07B680122D0
:1052480083F8BC237B68FA7883F838207B681B686E
:10525800FA781146184604F0EDF87B68002283F8C6
:10526800BC23002318460837BD4680BD80B584B0EE
:1052780000AF7860084611461A460346FB700B4695
:105288003B801346BB700023FB7297F90330002B59
:105298000FDAFB7803F00F021346DB009B1A9B0022
:1052A80038337A6813440433FB60FB6801225A7070
:1052B8000FE0FB7803F00F021346DB009B1A9B00FC
:1052C80003F5FC737A6813440433FB60FB6800221F
:1052D8005A70FB7803F00F03DAB2FB681A703A8849
:1052E800FB689A60FB68BA78DA70FB685B78002B19
:1052F80004D0FB681B789AB2FB68DA80BB78022B73
:1053080002D1FB6800221A717B6893F8BC33012B29
:1053180001D102230EE07B68012283F8BC237B685D
:105328001B68F968184603F0B7FA7B68002283F80F
:10533800BC23FB7A18461037BD4680BD80B584B0C3
:1053480000AF78600B46FB7097F90330002B0FDA3B
:10535800FB7803F00F021346DB009B1A9B003833DF
:105368007A6813440433FB60FB6801225A700FE02B
:10537800FB7803F00F021346DB009B1A9B0003F532
:10538800FC737A6813440433FB60FB6800225A708C
:10539800FB7803F00F03DAB2FB681A707B6893F8A6
:1053A800BC33012B01D102230EE07B68012283F874
:1053B800BC237B681B68F968184603F0F3FA7B681E
:1053C800002283F8BC23002318461037BD4680BD51
:1053D80080B586B000AFF8607A603B600B46FB7220
:1053E800FB7A03F00F021346DB009B1A9B0003F5C0
:1053F800FC73FA68134404337B617B697A68DA606A
:105408007B693A685A617B6900229A617B6900224C
:105418005A70FB7A03F00F03DAB27B691A70FB68E3
:105428001B69012B02D17A687B691A61FB7A03F048
:105438000F03002B09D1FB681868FB681B69DBB2F6
:105448001A46796903F076FD08E0FB681868FB687E
:105458001B69DBB21A46796903F028FB002318465A
:105468001837BD4680BD80B483B000AF78600B4666
:10547800FB70FB7803F00F0279681346DB009B1A78
:105488009B000B4403F505731B6818460C37BD4693
:1054980080BC704780B586B000AFF8607A603B602A
:1054A8000B46FB72FB7A03F00F021346DB009B1AD4
:1054B8009B003833FA68134404337B617B697A684C
:1054C800DA607B693A685A617B6900229A617B6974
:1054D80001225A70FB7A03F00F03DAB27B691A7063
:1054E800FB681B69012B02D17A687B691A61FB7A18
:1054F80003F00F03002B09D1FB681868FB681B69D0
:10550800DBB21A46796903F015FD08E0FB681868F4
:10551800FB681B69DBB21A46796903F0C7FA0023F6
:1055280018461837BD4680BD80B584B000AF786096
:105538000B46FB70FB7803F00F027B685B689A42AE
:1055480001D9012350E097F90330002B0FDAFB78DB
:1055580003F00F021346DB009B1A9B0038337A686E
:1055680013440433FB60FB6801225A700DE0FA789B
:105578001346DB009B1A9B0003F5FC737A681344FF
:105588000433FB60FB6800225A70FB6801229A70A2
:10559800FB7803F00F03DAB2FB681A707B6893F8A4
:1055A800BC33012B01D102231EE07B68012283F862
:1055B800BC237B681B68F968184603F069FEFB7812
:1055C80003F00F03002B0AD17B6818687B681B69FE
:1055D800D9B27B6803F571731A4604F04FF87B68FB
:1055E800002283F8BC23002318461037BD4680BD2F
:1055F80080B584B000AF78600B46FB70FB7803F091
:105608000F027B685B689A4201D9012342E097F94F
:105618000330002B0FDAFB7803F00F021346DB0090
:105628009B1A9B0038337A6813440433FB60FB6889
:1056380001225A700FE0FB7803F00F021346DB00DB
:105648009B1A9B0003F5FC737A6813440433FB60D0
:10565800FB6800225A70FB6800229A70FB7803F0FE
:105668000F03DAB2FB681A707B6893F8BC33012B1E
:1056780001D102230EE07B68012283F8BC237B68FA
:105688001B68F968184603F070FE7B68002283F8EF
:10569800BC23002318461037BD4680BD80B58AB0AC
:1056A80002AF786039607B681B687B617B693B610E
:1056B8003A681346DB009B1A9B0038337A68134418
:1056C8000433FB60FB689A69FB685B699A4201D9FD
:1056D80001236CE0FB685A69FB689B69D31AFB617C
:1056E800FB689B68FA699A4202D9FB689B68FB6170
:1056F800FB6903339B08BB612BE0FB685A69FB68B5
:105708009B69D31AFB61FB689B68FA699A4202D9C4
:10571800FB689B68FB61FB6903339B08BB61FB6803
:10572800D9683B68DAB2FB6998B27B681B69DBB25F
:1057380000930346786903F04FFDFB68DA68FB695C
:105748001A44FB68DA60FB689A69FB691A44FB68CB
:105758009A613B685A013B69134403F510639B69DE
:105768009BB2BA699A4209D8FB689A69FB685B6977
:105778009A4203D2FB685B69002BBED1FB685A6969
:10578800FB689B699A4211D83B6803F00F0301221A
:1057980002FA03F3BB603B6903F500635A6BBB680D
:1057A800DB43396901F5006113404B630023184658
:1057B8002037BD4680BD000080B586B000AF786058
:1057C80039607B681B687B617B693B617B693C3323
:1057D80004331B68FB603B685A013B69134403F5BB
:1057E80030639B68BB607B681B69012B40F0B3800A
:1057F800BB6803F00803002B28D0FB68704A93426B
:105808000ED9BB6803F40043002B09D03B685A014A
:105818003B69134403F530631A464FF40043936021
:10582800786807F07DF87B6818687B6803F5717302
:105838001A46012103F022FF3B685A013B691344D1
:1058480003F530631A4608239360B3E0BB6803F09E
:105858002003002B09D03B685A013B69134403F528
:1058680030631A4620239360A4E0BB6803F0280342
:10587800002B40F09F80FB68514A93420FD9BB68C8
:1058880003F40043002B0AD03B685A013B691344D8
:1058980003F530631A464FF4004393608AE0796851
:1058A8003A681346DB009B1A9B000B4403F501730F
:1058B8001A683B6859013B690B4403F530631B695F
:1058C800C3F31203D11A78683A681346DB009B1AAF
:1058D8009B00034403F50573196079683A68134619
:1058E800DB009B1A9B000B4403F502731968786868
:1058F8003A681346DB009B1A9B00034403F50173C7
:105908001B68194478683A681346DB009B1A9B00A9
:10591800034403F5027319603B68DBB219467868E3
:1059280007F010F83B68002B44D179683A681346B1
:10593800DB009B1A9B000B4403F504731B68002BC8
:1059480038D17B6818687B6803F571731A460121A2
:1059580003F094FE2EE0FB681A4A934224D1BB68F8
:1059680003F40043002B0AD03B685A013B691344F7
:1059780003F530631A464FF4004393601AE0BB689E
:1059880003F02003002B08D03B685A013B691344FD
:1059980003F530631A46202393603B68DBB219464F
:1059A800786806F0CFFF05E03B68DBB219467868F7
:1059B80006F0C8FF002318461837BD4680BD00BF53
:1059C8000A30544F0A31544F80B586B000AF786022
:1059D80039607B681B687B617B693B617B693C3311
:1059E80004331B68FB603B685A013B69134403F5A9
:1059F80030639B68BB607B681B69012B13D1FB6814
:105A08001F4A934222D9BB6803F40043002B1DD0E0
:105A18003B685A013B69134403F530631A464FF457
:105A28000043936012E0FB68164A93420ED1BB68AC
:105A380003F40043002B09D03B685A013B69134427
:105A480003F530631A464FF400439360786806F014
:105A580067FFFB680A4A93420CD97B681B69012BD4
:105A680008D17B6818687B6803F571731A460121B1
:105A780003F004FE002318461837BD4680BD00BF5A
:105A88000A30544F0A31544F80B485B000AF786063
:105A98000B46FB7013463B807B681B685B6ABB60E8
:105AA800FB78002B07D13B8819047B681B68BA6810
:105AB8000A439A6228E07B681B689B6A1B0CBA68D9
:105AC8001344BB600023FB730DE07B681A68FB7B03
